S011000070726F6A6563745F322E737265638B
S11300000C942A000C9436000C9434000C943400A4
S11300100C9434000C9434000C9434000C9434008C
S11300200C9434000C9434000C9434000C9434007C
S11300300C9434000C9434000C9434000C9434006C
S11300400C9434000C9434000C9434000C9434005C
S11300500C94340011241FBECFE5D8E0DEBFCDBF21
S11300600E9491020C94F8030C9400001F920F92CA
S11300700FB60F9211242F933F934F935F936F9377
S11300807F938F939F93AF93BF93EF93FF9360E01E
S113009080E00E947C03811106C061E00E947C0321
S11300A0882309F4C3C060E080E00E947E0261E01E
S11300B080E00E947E0262E080E00E947E0260E0B6
S11300C081E00E947E0261E081E00E947E0262E0A3
S11300D081E00E947E0260E080E00E947A0262E099
S11300E081E00E947A020E94EC0360E080E00E94BA
S11300F07E0262E081E00E947E0261E080E00E9474
S11301007A0261E081E00E947A020E94E00361E0E9
S113011080E00E947E0261E081E00E947E020E94F3
S1130120E00361E080E00E947A0261E081E00E94E5
S11301307A020E94E00361E080E00E947E0261E0B6
S113014081E00E947E020E94E00361E080E00E9460
S11301507A0261E081E00E947A020E94E00361E099
S113016080E00E947E0261E081E00E947E0262E003
S113017080E00E947A0260E081E00E947A020E949C
S1130180EC0362E080E00E947E0261E080E00E9475
S11301907A0261E081E00E947A020E94E00361E059
S11301A080E00E947E0261E081E00E947E020E9463
S11301B0E00361E080E00E947A0261E081E00E9455
S11301C07A020E94E00361E080E00E947E0261E026
S11301D081E00E947E020E94E00361E080E00E94D0
S11301E07A0261E081E00E947A020E94E00360E00A
S11301F081E00E947E0261E080E00E947E0261E074
S113020081E00E947E0262E081E00E947A0260E066
S113021080E00E947A020E94EC0362E081E00E9486
S11302207E0260E080E00E947E027DC062E080E0A9
S11302300E947C03882309F476C060E080E00E9479
S11302407E0261E080E00E947E0262E080E00E9423
S11302507E0260E081E00E947E0261E081E00E9413
S11302607E0262E081E00E947E0262E080E00E9401
S11302707A0260E081E00E947A020E94EC0362E06C
S113028080E00E947E0261E080E00E947A0261E0E8
S113029081E00E947A020E94E00361E080E00E9413
S11302A07E0261E081E00E947E020E94E00361E040
S11302B080E00E947A0261E081E00E947A020E945A
S11302C0E00361E080E00E947E0261E081E00E9440
S11302D07E020E94E00361E080E00E947A0261E015
S11302E081E00E947A020E94E00360E081E00E94C3
S11302F07E0261E080E00E947E0261E081E00E9473
S11303007E0262E081E00E947A0260E080E00E9466
S11303107A020E94EC0362E081E00E947E0260E0C7
S113032080E00E947E02FF91EF91BF91AF919F9177
S11303308F917F916F915F914F913F912F910F908A
S11303400FBE0F901F90189560E080E00E94760227
S113035061E080E00E94760262E080E00E94760222
S113036060E081E00E94760261E081E00E94760212
S113037062E081E00E94760260E080E00E947E02FA
S113038061E080E00E947E0262E080E00E947E02E2
S113039060E081E00E947E0261E081E00E947E02D2
S11303A062E081E00E947E0262E083E00E948202B9
S11303B00E94C2030E94DC03089561E080E00E9471
S11303C07E0261E081E00E947E0260E080E00E94A3
S11303D07A0262E081E00E947A020E94EC0360E00B
S11303E080E00E947E0262E081E00E947E0261E081
S11303F080E00E947A0261E081E00E947A020E9419
S1130400E00361E080E00E947E0261E081E00E94FE
S11304107E020E94E00361E080E00E947A0261E0D3
S113042081E00E947A020E94E00361E080E00E9481
S11304307E0261E081E00E947E020E94E00361E0AE
S113044080E00E947A0261E081E00E947A020E94C8
S1130450E00361E080E00E947E0261E081E00E94AE
S11304607E0262E080E00E947A0260E081E00E9405
S11304707A020E94EC0362E080E00E947E0260E067
S113048081E00E947E0261E080E00E947A0261E0E5
S113049081E00E947A020E94E00361E080E00E9411
S11304A07E0261E081E00E947E020E94E00361E03E
S11304B080E00E947A0261E081E00E947A020E9458
S11304C0E00361E080E00E947E0261E081E00E943E
S11304D07E020E94E00361E080E00E947A0261E013
S11304E081E00E947A020E94E003089541E00E94A4
S11304F09602089541E00E940903089540E00E9495
S113050009030895CF93DF93C82FD62F40E00E94AC
S1130510960241E06D2F8C2F0E940903DF91CF9149
S113052008950E94A4010E94DD01FDCF683008F007
S11305306FC0843008F06CC0813001F130F082303B
S1130540B1F1833009F44CC00895413059F42AB311
S113055081E090E002C0880F991F6A95E2F7822B30
S11305608ABB08952AB381E090E002C0880F991FE6
S11305706A95E2F7809582238ABB0895413059F445
S113058027B381E090E002C0880F991F6A95E2F7D3
S1130590822B87BB089527B381E090E002C0880FC7
S11305A0991F6A95E2F78095822387BB08954130AD
S11305B059F424B381E090E002C0880F991F6A9532
S11305C0E2F7822B84BB089524B381E090E002C05B
S11305D0880F991F6A95E2F78095822384BB08955A
S11305E0413059F421B381E090E002C0880F991F93
S11305F06A95E2F7822B81BB089521B381E090E0F4
S113060002C0880F991F6A95E2F78095822381BB07
S11306100895683008F06FC0843008F06CC08130F1
S113062001F130F08230B1F1833009F44CC0089507
S1130630413059F42BB381E090E002C0880F991F38
S11306406A95E2F7822B8BBB08952BB381E090E08F
S113065002C0880F991F6A95E2F7809582238BBBAD
S11306600895413059F428B381E090E002C0880F26
S1130670991F6A95E2F7822B88BB089528B381E01D
S113068090E002C0880F991F6A95E2F78095822353
S113069088BB0895413059F425B381E090E002C04D
S11306A0880F991F6A95E2F7822B85BB089525B3BD
S11306B081E090E002C0880F991F6A95E2F7809567
S11306C0822385BB0895413059F422B381E090E040
S11306D002C0880F991F6A95E2F7822B82BB0895A6
S11306E022B381E090E002C0880F991F6A95E2F777
S11306F08095822382BB08956830B0F58430B0F5CC
S1130700813089F028F08230C9F0833011F130C093
S113071089B390E002C0959587956A95E2F780FFCA
S113072029C081E0089586B390E002C0959587952D
S11307306A95E2F780FF20C081E0089583B390E0DA
S113074002C0959587956A95E2F780FF17C081E00E
S1130750089580B390E002C0959587956A95E2F775
S113076080FF0EC081E0089580E0089580E0089540
S113077080E0089580E0089580E0089580E0089581
S113078080E008958FB78F778FBF40E062E083E009
S11307900E94960241E062E083E00E9409038BB765
S11307A080648BBF85B7816085BF85B7826085BF54
S11307B08FB780688FBF089512BE85E883BF089500
S11307C090E007C008B600FEFDCF88B7816088BFFF
S11307D09F5F9430B9F7089590E007C008B600FE13
S11307E0FDCF88B7816088BF9F5F9431B9F70895C2
S10707F0F894FFCFA7
S9030000FC
