S011000070726F6A6563745F322E737265638B
S11300000C942A000C945D020C9434000C9434007B
S11300100C9434000C9434000C9434000C9434008C
S11300200C9434000C9434000C9434000C9434007C
S11300300C9434000C9434000C9434000C9434006C
S11300400C9434000C9434000C9434000C9434005C
S11300500C94340011241FBECFE5D8E0DEBFCDBF21
S11300600E94F6000C9412030C94000060E080E0FF
S11300700E94820061E080E00E94820062E080E0F1
S11300800E94820060E081E00E94820061E081E0E1
S11300900E94820062E081E00E9482000E9491003E
S11300A062E083E00E94E6000E9443020E94F402A0
S11300B0089560E080E00E94870062E081E00E9491
S11300C087000E94050360E080E00E948C0062E0EB
S11300D081E00E948C000E94AB0062E080E00E94FC
S11300E0870060E081E00E9487000E94050362E0CF
S11300F080E00E948C0060E081E00E948C000E94FD
S1130100AB00089541E00E94FB0081E0089541E0C6
S11301100E947C0181E0089540E00E947C0181E01E
S1130120089560E080E00E948C0061E080E00E941D
S11301308C0062E080E00E948C0060E081E00E941C
S11301408C0061E081E00E948C0062E081E00E940A
S11301508C0081E0089561E080E00E94870061E006
S113016081E00E9487000E94F80261E080E00E9422
S11301708C0061E081E00E948C000E94F80261E042
S113018080E00E94870061E081E00E9487000E9475
S1130190F80261E080E00E948C0061E081E00E944E
S11301A08C000E94F80261E080E00E94870061E018
S11301B081E00E9487000E94F80261E080E00E94D2
S11301C08C0061E081E00E948C000895CF93DF935E
S11301D0C82FD62F40E00E94FB0041E06D2F8C2FEA
S11301E00E947C0181E0DF91CF9108950E94360046
S11301F00E945900FDCF683008F078C0843008F0C0
S113020077C0813011F130F08230D1F1833009F4BC
S113021052C070C0413061F42AB381E090E002C062
S1130220880F991F6A95E2F7822B8ABB81E00895B3
S11302302AB381E090E002C0880F991F6A95E2F723
S1130240809582238ABB81E00895413061F427B30D
S113025081E090E002C0880F991F6A95E2F7822B33
S113026087BB81E0089527B381E090E002C0880F46
S1130270991F6A95E2F78095822387BB81E00895F0
S1130280413061F424B381E090E002C0880F991FEB
S11302906A95E2F7822B84BB81E0089524B381E060
S11302A090E002C0880F991F6A95E2F78095822337
S11302B084BB81E00895413061F421B381E090E092
S11302C002C0880F991F6A95E2F7822B81BB81E0F7
S11302D0089521B381E090E002C0880F991F6A95C8
S11302E0E2F78095822381BB81E0089580E0089540
S11302F080E0089581E00895683008F078C0843083
S113030008F077C0813011F130F08230D1F18330C0
S113031009F452C070C0413061F42BB381E090E025
S113032002C0880F991F6A95E2F7822B8BBB81E08C
S113033008952BB381E090E002C0880F991F6A955D
S1130340E2F7809582238BBB81E00895413061F40C
S113035028B381E090E002C0880F991F6A95E2F704
S1130360822B88BB81E0089528B381E090E002C02D
S1130370880F991F6A95E2F78095822388BB81E0F4
S11303800895413061F425B381E090E002C0880F04
S1130390991F6A95E2F7822B85BB81E0089525B306
S11303A081E090E002C0880F991F6A95E2F780957A
S11303B0822385BB81E00895413061F422B381E05A
S11303C090E002C0880F991F6A95E2F7822B82BBE6
S11303D081E0089522B381E090E002C0880F991F64
S11303E06A95E2F78095822382BB81E0089580E0DC
S11303F0089580E0089581E008956830B0F5843070
S1130400B0F5813089F028F08230C9F0833011F1E1
S113041030C089B390E002C0959587956A95E2F75C
S113042080FF29C081E0089586B390E002C09595CD
S113043087956A95E2F780FF20C081E0089583B331
S113044090E002C0959587956A95E2F780FF17C002
S113045081E0089580B390E002C0959587956A95F0
S1130460E2F780FF0EC081E0089580E0089580E007
S1130470089580E0089580E0089580E0089580E084
S1130480089580E008958FB78F778FBF40E062E0D2
S113049083E00E94FB0041E062E083E00E947C0173
S11304A08BB780648BBF85B7816085BF85B7826059
S11304B085BF8FB780688FBF08951F920F920FB6C4
S11304C00F9211242F933F934F935F936F937F93D6
S11304D08F939F93AF93BF93EF93FF9360E080E07C
S11304E00E94FD01811106C061E00E94FD01882384
S11304F009F453C00E94910062E070E081E090E052
S11305000E9487000E94AB0061E070E080E090E010
S11305100E948C0061E070E081E090E00E948C0019
S113052062E070E081E090E00E948C0062E070E0A4
S113053080E090E00E94870060E070E081E090E05D
S11305400E9487000E94050362E070E080E090E072
S11305500E948C000E94AB0060E070E081E090E0BB
S11305600E948C0060E070E080E090E00E948700D0
S113057062E070E081E090E00E9487000E94050341
S113058060E070E080E090E00E948C0062E070E047
S113059081E090E00E948C0016C062E080E00E943E
S11305A0FD01882381F00E94910062E070E080E008
S11305B090E00E94870060E070E081E090E00E949B
S11305C087000E940503FF91EF91BF91AF919F9126
S11305D08F917F916F915F914F913F912F910F90E8
S11305E00FBE0F901F90189512BE85E883BF089523
S11305F090E007C008B600FEFDCF88B7816088BFD1
S11306009F5F9430B9F781E0089590E007C008B681
S113061000FEFDCF88B7816088BF9F5F9431B9F732
S10B062081E00895F894FFCF76
S9030000FC
